:020000040800F2
:100000000028002055020008A5020008A5020008EB
:10001000A5020008A5020008A502000800000000D3
:10002000000000000000000000000000A502000821
:10003000A502000800000000A5020008A5020008B3
:10004000A5020008A5020008A5020008A5020008F4
:10005000A5020008A5020008A5020008A5020008E4
:10006000A5020008A5020008A5020008A5020008D4
:10007000A5020008A5020008A5020008A5020008C4
:10008000A5020008A5020008A5020008A5020008B4
:10009000A5020008A5020008A5020008A5020008A4
:1000A000A5020008A5020008A5020008A502000894
:1000B000A5020008A5020008A5020008A502000884
:1000C000A5020008A5020008A5020008A502000874
:1000D000A5020008A5020008A5020008A502000864
:1000E000A5020008A502000800000000A502000803
:1000F000A5020008A5020008A5020008A502000844
:10010000A5020008A5020008A5020008A502000833
:10011000A5020008A5020008A5020008A502000823
:10012000A5020008A5020008A5020008A502000813
:1001300010B5054C237833B9044B13B10448AFF321
:1001400000800123237010BD00000020000000008B
:10015000F002000808B5034B1BB103490348AFF395
:10016000008008BD0000000004000020F00200082C
:1001700080B400AF094B1B68084A43F004031360C6
:10018000074B1B68064B00221A60064B1B68054B89
:1001900000221A6000BFBD4680BC704718100240A4
:1001A000040801400008014080B483B000AF7860CB
:1001B00039603B681B6801217A6801FA02F21A4330
:1001C0003B681A6000BF0C37BD4680BC704780B4E6
:1001D00083B000AF786039603B681B6801217A68A2
:1001E00001FA02F2D2431A403B681A6000BF0C3792
:1001F000BD4680BC7047000080B582B000AFFFF7FD
:10020000B7FF124B1B68114A43F00203136000232F
:100210007B6002E07B6801337B607B6841F2873260
:100220009342F7DD0A490020FFF7BEFF00237B6001
:1002300002E07B6801337B607B6841F28732934246
:10024000F7DD03490020FFF7C2FFE0E700080140A7
:100250000C0801400D488546AFF300800C480D495D
:100260000D4A002302E0D458C4500433C4188C4211
:10027000F9D30A4A0A4C002301E013600432A24277
:10028000FBD300F011F8FFF7B7FFFEE700280020CE
:1002900000000020000000201003000800000020E3
:1002A0001C000020FEE7000070B500250C4E0D4C30
:1002B000A41BA410A54209D100F01AF800250A4E8B
:1002C0000A4CA41BA410A54205D170BD56F82530D8
:1002D00098470135EEE756F8253098470135F2E7A3
:1002E0000803000808030008080300080C030008BE
:1002F000F8B500BFF8BC08BC9E467047F8B500BF13
:08030000F8BC08BC9E467047E2
:040308005501000893
:04030C0031010008B3
:040000050800025598
:00000001FF
